:100000000C9446000C9473000C9473000C947300D1
:100010000C9473000C9473000C9473000C94730094
:100020000C9473000C9473000C9473000C94730084
:100030000C9473000C9473000C9473000C94730074
:100040000C9473000C9473000C9473000C94730064
:100050000C9473000C9473000C9473000C94730054
:100060000C9473000C9473000C9473000C94730044
:100070000C9473000C9473000C9473000C94730034
:100080000C9473000C9473000C94730011241FBE25
:10009000CFEFD0E1DEBFCDBF0E9452000C945000E4
:0400A000F894FFCF02
:1000A40081B3806181BB81B38B7F81BB2FE78AE100
:1000B40096E0215080409040E1F700C00000829B10
:1000C400FECF82B3806182BB2FE78AE196E02150A4
:1000D40080409040E1F700C0000082B38F7E82BB75
:0200E400EECF5D
:0400E6000C94000076
:00000001FF
