:100000000C9446000C9471000C9471000C947100D7
:100010000C9471000C9471000C9471000C9471009C
:100020000C9471000C9471000C9471000C9471008C
:100030000C9471000C9471000C9471000C9471007C
:100040000C9471000C9471000C9471000C9471006C
:100050000C9471000C9471000C9471000C9471005C
:100060000C9471000C9471000C9471000C9471004C
:100070000C9471000C9471000C9471000C9471003C
:100080000C9471000C9471000C94710011241FBE2B
:10009000CFEFD0E1DEBFCDBF0E9452000C945000E4
:0400A000F894FFCF02
:1000A4002FE78AE196E0215080409040E1F700C0BC
:1000B40000008FB5826A8FBD8EB58B618EBD88E3DB
:1000C40091E097BD86BD87B3806287BB81E290E0F3
:0E00D4009BBD8ABD84E190E09BBD8ABDFBCF41
:0400E2000C9400007A
:00000001FF
