:100000000C9446000C9479000C9479000C947900BF
:100010000C9479000C9479000C9479000C9479007C
:100020000C9479000C9479000C9479000C9479006C
:100030000C9479000C9479000C9479000C9479005C
:100040000C9479000C9479000C9479000C9479004C
:100050000C9479000C9479000C9479000C9479003C
:100060000C9479000C9479000C9479000C9479002C
:100070000C9479000C9479000C9479000C9479001C
:100080000C9479000C9479000C94790011241FBE13
:10009000CFEFD0E1DEBFCDBF0E9452000C945000E4
:0400A000F894FFCF02
:1000A4008FB5826A8FBD8EB58B618EBD88E391E07A
:1000B40097BD86BD80E287BB8FE090E09BBD8ABD83
:1000C4002FEB87E299E0215080409040E1F700C097
:1000D400000082E190E09BBD8ABD2FEB87E299E0AE
:0E00E400215080409040E1F700C00000E5CFC1
:0400F2000C9400006A
:00000001FF
