:100000000C9446000C949D000C949D000C949D0053
:100010000C949D000C949D000C949D000C949D00EC
:100020000C949D000C949D000C949D000C949D00DC
:100030000C949D000C949D000C949D000C949D00CC
:100040000C949D000C949D000C949D000C949D00BC
:100050000C949D000C949D000C949D000C949D00AC
:100060000C949D000C949D000C949D000C949D009C
:100070000C949D000C949D000C949D000C949D008C
:100080000C949D000C949D000C949D0011241FBEA7
:10009000CFEFD0E1DEBFCDBF0E9452000C945000E4
:0400A000F894FFCF02
:1000A4002FE78AE196E0215080409040E1F700C0BC
:1000B40000008FB5826A8FBD8EB58B618EBD88E3DB
:1000C40091E097BD86BD87B3806287BB81B38061B1
:1000D40081BB81B38B7F81BB81B3877F81BB8FE081
:1000E40090E09BBD8ABD2FEB87E299E021508040D0
:1000F4009040E1F700C00000829B05C08AE190E0D7
:100104009BBD8ABD04C08FE090E09BBD8ABD839BEC
:10011400F3CF1BBC1ABC82B3806182BB2FE78AE198
:1001240096E0215080409040E1F700C0000082B387
:060134008F7E82BBE1CFCB
:04013A000C94000021
:00000001FF
