:100000000C9446000C947B000C947B000C947B00B9
:100010000C947B000C947B000C947B000C947B0074
:100020000C947B000C947B000C947B000C947B0064
:100030000C947B000C947B000C947B000C947B0054
:100040000C947B000C947B000C947B000C947B0044
:100050000C947B000C947B000C947B000C947B0034
:100060000C947B000C947B000C947B000C947B0024
:100070000C947B000C947B000C947B000C947B0014
:100080000C947B000C947B000C947B0011241FBE0D
:10009000CFEFD0E1DEBFCDBF0E9452000C945000E4
:0400A000F894FFCF02
:1000A4008FB5826A8FBD8EB58B618EBD88E391E07A
:1000B40097BD86BD80E287BB83E190E09BBD8ABD8E
:1000C4002FEF33ED80E3215030408040E1F700C052
:1000D40000008FE090E09BBD8ABD9AEA2AEA3AEAE2
:1000E4008AE29150204030408040D9F780E090E08F
:0200F40008956D
:0400F6000C94000066
:00000001FF
